{
  "contractName": "Hasher",
  "abi": [
    {
      "constant": true,
      "inputs": [
        {
          "name": "_c",
          "type": "uint8"
        },
        {
          "name": "_salt",
          "type": "uint256"
        }
      ],
      "name": "hash",
      "outputs": [
        {
          "name": "",
          "type": "bytes32"
        }
      ],
      "payable": false,
      "stateMutability": "view",
      "type": "function"
    }
  ],
  "bytecode": "0x608060405234801561001057600080fd5b50610113806100206000396000f300608060405260043610603f576000357c0100000000000000000000000000000000000000000000000000000000900463ffffffff16806367ef4c13146044575b600080fd5b348015604f57600080fd5b506079600480360381019080803560ff169060200190929190803590602001909291905050506097565b60405180826000191660001916815260200191505060405180910390f35b60008282604051808360ff1660ff167f01000000000000000000000000000000000000000000000000000000000000000281526001018281526020019250505060405180910390209050929150505600a165627a7a72305820e1a70f55f1c5f8ca8df77583bcb65fd02f7e52bd4322f2ce59d283941ac078680029",
  "source": "/**\n *  @title Rock Paper Scissors Lizard Spock\n *  @author Clément Lesaege - <clement@lesaege.com>\n */\n \n/* This program is free software. It comes without any warranty, to\nthe extent permitted by applicable law. You can redistribute it\nand/or modify it under the terms of the Do What The Fuck You Want\nTo Public License, Version 2, as published by Sam Hocevar. See\nhttp://www.wtfpl.net/ for more details. */\n\npragma solidity ^0.4.9;\n\ncontract RPS{\n    address public j1; // The first player creating the contract.\n    address public j2; // The second player.\n    enum Move {Null, Rock, Paper, Scissors, Spock, Lizard} // Possible moves. Note that if the parity of the moves is the same the lower one wins, otherwise the higher one. \n    bytes32 public c1Hash; // Commitment of j1.\n    Move public c2; // Move of j2. Move.Null before he played.\n    uint256 public stake; // Amout bet by each party.\n    uint256 public TIMEOUT = 5 minutes; // If some party takes more than TIMEOUT to respond, the other can call TIMEOUT to win.\n    uint256 public lastAction; // The time of the last action. Usefull to determine if someone has timed out.\n    uint256 public state;\n    /** @dev Constructor. Must send the amount at stake when creating the contract. Note that the move and salt must be saved.\n     *  @param _c1Hash Must be equal to keccak256(c1,salt) where c1 is the move of the j1.\n     */\n     uint256 public winner;\n     \n\n    function RPS(bytes32 _c1Hash, address _j2) payable {\n        stake = msg.value; // La mise correspond à la quantité d'ethers envoyés.\n        j1=msg.sender;\n        j2=_j2;\n        c1Hash=_c1Hash;\n        lastAction=now;\n        state=1;\n    }\n\nfunction getstate() returns(uint256,address,address)\n{\n    return (state,j1,j2);\n}\n\nevent newstate(string eventtype,uint256 state);\n    \n    \n    /** @dev To be called by j2 and provided stake.\n     *  @param _c2 The move submitted by j2.\n     */\n    function play(Move _c2) payable {\n        require(c2==Move.Null); // J2 has not played yet.\n        require(msg.value==stake); // J2 has paid the stake.\n        require(msg.sender==j2); // Only j2 can call this function.\n          state=2;  \n        c2=_c2;\n        lastAction=now;\n        emit newstate(\"newstate\",state);\n    }\n    \n    /** @dev To be called by j1. Reveal the move and send the ETH to the winning party or split them.\n     *  @param _c1 The move played by j1.\n     *  @param _salt The salt used when submitting the commitment when the constructor was called.\n     */\n    function solve(Move _c1, uint256 _salt) {\n        require(c2!=Move.Null); // J2 must have played.\n        require(msg.sender==j1); // J1 can call this.\n        require(keccak256(_c1,_salt)==c1Hash); // Verify the value is the commited one.\n        \n        // If j1 or j2 throws at fallback it won't get funds and that is his fault.\n        // Despite what the warnings say, we should not use transfer as a throwing fallback would be able to block the contract, in case of tie.\n        if (win(_c1,c2))\n        {\n            j1.send(2*stake);\n            winner=1;\n\n        }\n        else if (win(c2,_c1))\n        {\n            j2.send(2*stake);\n            winner=2;\n        }\n        else {\n            j1.send(stake);\n            j2.send(stake);\n            winner=3;\n        }\n        stake=0;\n        state=3;\n        emit newstate(\"newstate\",state);\n    }\n\n\n    /** @dev Let j2 get the funds back if j1 did not play.\n     */\n    function j1Timeout() {\n        require(c2!=Move.Null); // J2 already played.\n        require(now > lastAction + TIMEOUT); // Timeout time has passed.\n        j2.send(2*stake);\n        stake=0;\n        state=3;\n        winner=2;\n        emit newstate(\"newstate\",state);\n    }\n    \n    /** @dev Let j1 take back the funds if j2 never play.\n     */\n    function j2Timeout() {\n        require(c2==Move.Null); // J2 has not played.\n        require(now > lastAction + TIMEOUT); // Timeout time has passed.\n        j1.send(stake);\n        stake=0;\n        state=3;\n        winner=3;\n        emit newstate(\"newstate\",state);\n    }\n  \n    /** @dev Is this move winning over the other.\n     *  @param _c1 The first move.\n     *  @param _c2 The move the first move is considered again.\n     *  @return w True if c1 beats c2. False if c1 is beaten by c2 or in case of tie.\n     */\n    function win(Move _c1, Move _c2) constant returns (bool w) {\n        if (_c1 == _c2)\n            return false; // They played the same so no winner.\n        else if (_c1==Move.Null)\n            return false; // They did not play.\n        else if (uint(_c1)%2==uint(_c2)%2) \n            return (_c1<_c2);\n        else\n            return (_c1>_c2);\n    }\n    \n}\n\ncontract Hasher{\n    /** @dev Give the commitement. Must only be called locally.\n     *  @param _c The move.\n     *  @param _salt The salt to increase entropy.\n     */\n    function hash(uint8 _c, uint256 _salt) constant returns(bytes32) {\n        return keccak256(_c,_salt);\n    }\n}\n",
  "sourcePath": "/Library/WebServer/Documents/game/web3/contracts/RPS.sol",
  "compiler": {
    "name": "solc",
    "version": "0.4.22+commit.4cb486ee.Emscripten.clang"
  },
  "schemaVersion": "3.4.0",
  "updatedAt": "2021-05-13T16:25:07.329Z",
  "networkType": "ethereum",
  "devdoc": {
    "methods": {
      "hash(uint8,uint256)": {
        "details": "Give the commitement. Must only be called locally.",
        "params": {
          "_c": "The move.",
          "_salt": "The salt to increase entropy."
        }
      }
    }
  },
  "userdoc": {
    "methods": {}
  }
}