{
  "contractName": "Users",
  "abi": [
    {
      "anonymous": false,
      "inputs": [
        {
          "indexed": false,
          "name": "eventtype",
          "type": "string"
        },
        {
          "indexed": false,
          "name": "contadd",
          "type": "string"
        },
        {
          "indexed": false,
          "name": "j1",
          "type": "address"
        },
        {
          "indexed": false,
          "name": "j2",
          "type": "address"
        }
      ],
      "name": "newgame",
      "type": "event"
    },
    {
      "anonymous": false,
      "inputs": [
        {
          "indexed": false,
          "name": "eventtype",
          "type": "string"
        },
        {
          "indexed": false,
          "name": "name",
          "type": "string"
        },
        {
          "indexed": false,
          "name": "useradd",
          "type": "address"
        }
      ],
      "name": "newuser",
      "type": "event"
    },
    {
      "constant": false,
      "inputs": [
        {
          "name": "_j1",
          "type": "address"
        },
        {
          "name": "_j2",
          "type": "address"
        },
        {
          "name": "_contractadd",
          "type": "string"
        }
      ],
      "name": "setgame",
      "outputs": [],
      "payable": false,
      "stateMutability": "nonpayable",
      "type": "function"
    },
    {
      "constant": false,
      "inputs": [
        {
          "name": "_j",
          "type": "address"
        }
      ],
      "name": "getgames",
      "outputs": [
        {
          "name": "",
          "type": "string[]"
        }
      ],
      "payable": false,
      "stateMutability": "nonpayable",
      "type": "function"
    },
    {
      "constant": false,
      "inputs": [
        {
          "name": "_na",
          "type": "string"
        }
      ],
      "name": "register",
      "outputs": [],
      "payable": false,
      "stateMutability": "nonpayable",
      "type": "function"
    },
    {
      "constant": false,
      "inputs": [],
      "name": "getnum",
      "outputs": [
        {
          "name": "",
          "type": "uint256"
        }
      ],
      "payable": false,
      "stateMutability": "nonpayable",
      "type": "function"
    },
    {
      "constant": false,
      "inputs": [],
      "name": "getaddresses",
      "outputs": [
        {
          "name": "",
          "type": "address[]"
        }
      ],
      "payable": false,
      "stateMutability": "nonpayable",
      "type": "function"
    },
    {
      "constant": false,
      "inputs": [
        {
          "name": "_ad",
          "type": "address"
        }
      ],
      "name": "getname",
      "outputs": [
        {
          "name": "",
          "type": "string"
        }
      ],
      "payable": false,
      "stateMutability": "nonpayable",
      "type": "function"
    }
  ],
  "bytecode": "0x608060405234801561001057600080fd5b50610ef5806100206000396000f300608060405260043610610078576000357c0100000000000000000000000000000000000000000000000000000000900463ffffffff1680634742add11461007d57806352bac443146100ba5780637d368873146100e35780638159dec71461010e578063f2c298be1461014b578063f3a1cf9914610174575b600080fd5b34801561008957600080fd5b506100a4600480360361009f91908101906109be565b61019f565b6040516100b19190610c94565b60405180910390f35b3480156100c657600080fd5b506100e160048036036100dc91908101906109e7565b61030f565b005b3480156100ef57600080fd5b506100f8610472565b6040516101059190610d4a565b60405180910390f35b34801561011a57600080fd5b50610135600480360361013091908101906109be565b61047e565b6040516101429190610c72565b60405180910390f35b34801561015757600080fd5b50610172600480360361016d9190810190610a4e565b6106b5565b005b34801561018057600080fd5b506101896107c2565b6040516101969190610c50565b60405180910390f35b606060008090505b6000805490508110156102f5578273ffffffffffffffffffffffffffffffffffffffff166000828154811015156101da57fe5b906000526020600020906003020160000160009054906101000a900473ffffffffffffffffffffffffffffffffffffffff1673ffffffffffffffffffffffffffffffffffffffff1614156102e85760008181548110151561023757fe5b90600052602060002090600302016001018054600181600116156101000203166002900480601f0160208091040260200160405190810160405280929190818152602001828054600181600116156101000203166002900480156102dc5780601f106102b1576101008083540402835291602001916102dc565b820191906000526020600020905b8154815290600101906020018083116102bf57829003601f168201915b50505050509150610309565b80806001019150506101a7565b602060405190810160405280600081525091505b50919050565b60016060604051908101604052808573ffffffffffffffffffffffffffffffffffffffff1681526020018473ffffffffffffffffffffffffffffffffffffffff168152602001838152509080600181540180825580915050906001820390600052602060002090600302016000909192909190915060008201518160000160006101000a81548173ffffffffffffffffffffffffffffffffffffffff021916908373ffffffffffffffffffffffffffffffffffffffff16021790555060208201518160010160006101000a81548173ffffffffffffffffffffffffffffffffffffffff021916908373ffffffffffffffffffffffffffffffffffffffff160217905550604082015181600201908051906020019061042e9291906108af565b505050507f2e1b8e8572212ce8fb4cade7f880ff1ea63f093a0d13ce22e5d285a7fabaf86f81848460405161046593929190610cb6565b60405180910390a1505050565b60008080549050905090565b6060806000806001805490506040519080825280602002602001820160405280156104bd57816020015b60608152602001906001900390816104a85790505b50925060009150600090505b6001805490508110156106aa578473ffffffffffffffffffffffffffffffffffffffff166001828154811015156104fc57fe5b906000526020600020906003020160000160009054906101000a900473ffffffffffffffffffffffffffffffffffffffff1673ffffffffffffffffffffffffffffffffffffffff1614806105bb57508473ffffffffffffffffffffffffffffffffffffffff1660018281548110151561057157fe5b906000526020600020906003020160010160009054906101000a900473ffffffffffffffffffffffffffffffffffffffff1673ffffffffffffffffffffffffffffffffffffffff16145b1561069d576001818154811015156105cf57fe5b90600052602060002090600302016002018054600181600116156101000203166002900480601f0160208091040260200160405190810160405280929190818152602001828054600181600116156101000203166002900480156106745780601f1061064957610100808354040283529160200191610674565b820191906000526020600020905b81548152906001019060200180831161065757829003601f168201915b5050505050838381518110151561068757fe5b9060200190602002018190525081806001019250505b80806001019150506104c9565b829350505050919050565b60006060604051908101604052803373ffffffffffffffffffffffffffffffffffffffff16815260200183815260200160008152509080600181540180825580915050906001820390600052602060002090600302016000909192909190915060008201518160000160006101000a81548173ffffffffffffffffffffffffffffffffffffffff021916908373ffffffffffffffffffffffffffffffffffffffff16021790555060208201518160010190805190602001906107789291906108af565b50604082015181600201555050507f3a6525cd06828251d7a63387b281c7b722b7544638c3183ec8cd500be9641c8781336040516107b7929190610d07565b60405180910390a150565b606080600080805490506040519080825280602002602001820160405280156107fa5781602001602082028038833980820191505090505b509150600090505b6000805490508110156108a75760008181548110151561081e57fe5b906000526020600020906003020160000160009054906101000a900473ffffffffffffffffffffffffffffffffffffffff16828281518110151561085e57fe5b9060200190602002019073ffffffffffffffffffffffffffffffffffffffff16908173ffffffffffffffffffffffffffffffffffffffff16815250508080600101915050610802565b819250505090565b828054600181600116156101000203166002900490600052602060002090601f016020900481019282601f106108f057805160ff191683800117855561091e565b8280016001018555821561091e579182015b8281111561091d578251825591602001919060010190610902565b5b50905061092b919061092f565b5090565b61095191905b8082111561094d576000816000905550600101610935565b5090565b90565b60006109608235610e48565b905092915050565b600082601f830112151561097b57600080fd5b813561098e61098982610d92565b610d65565b915080825260208301602083018583830111156109aa57600080fd5b6109b5838284610e68565b50505092915050565b6000602082840312156109d057600080fd5b60006109de84828501610954565b91505092915050565b6000806000606084860312156109fc57600080fd5b6000610a0a86828701610954565b9350506020610a1b86828701610954565b925050604084013567ffffffffffffffff811115610a3857600080fd5b610a4486828701610968565b9150509250925092565b600060208284031215610a6057600080fd5b600082013567ffffffffffffffff811115610a7a57600080fd5b610a8684828501610968565b91505092915050565b610a9881610e1e565b82525050565b6000610aa982610dd8565b808452602084019350610abb83610dbe565b60005b82811015610aed57610ad1868351610a8f565b610ada82610e04565b9150602086019550600181019050610abe565b50849250505092915050565b6000610b0482610de3565b80845260208401935083602082028501610b1d85610dcb565b60005b84811015610b56578383038852610b38838351610b9d565b9250610b4382610e11565b9150602088019750600181019050610b20565b508196508694505050505092915050565b6000610b7282610df9565b808452610b86816020860160208601610e77565b610b8f81610eaa565b602085010191505092915050565b6000610ba882610dee565b808452610bbc816020860160208601610e77565b610bc581610eaa565b602085010191505092915050565b6000600782527f6e657767616d65000000000000000000000000000000000000000000000000006020830152604082019050919050565b6000600782527f6e657775736572000000000000000000000000000000000000000000000000006020830152604082019050919050565b610c4a81610e3e565b82525050565b60006020820190508181036000830152610c6a8184610a9e565b905092915050565b60006020820190508181036000830152610c8c8184610af9565b905092915050565b60006020820190508181036000830152610cae8184610b67565b905092915050565b60006080820190508181036000830152610ccf81610bd3565b90508181036020830152610ce38186610b67565b9050610cf26040830185610a8f565b610cff6060830184610a8f565b949350505050565b60006060820190508181036000830152610d2081610c0a565b90508181036020830152610d348185610b67565b9050610d436040830184610a8f565b9392505050565b6000602082019050610d5f6000830184610c41565b92915050565b6000604051905081810181811067ffffffffffffffff82111715610d8857600080fd5b8060405250919050565b600067ffffffffffffffff821115610da957600080fd5b601f19601f8301169050602081019050919050565b6000602082019050919050565b6000602082019050919050565b600081519050919050565b600081519050919050565b600081519050919050565b600081519050919050565b6000602082019050919050565b6000602082019050919050565b600073ffffffffffffffffffffffffffffffffffffffff82169050919050565b6000819050919050565b600073ffffffffffffffffffffffffffffffffffffffff82169050919050565b82818337600083830152505050565b60005b83811015610e95578082015181840152602081019050610e7a565b83811115610ea4576000848401525b50505050565b6000601f19601f83011690509190505600a265627a7a72305820f4c1de3f9bf51e76a843e752664a2b613919b3e058910f7b445fb563adefe10c6c6578706572696d656e74616cf50037",
  "source": "pragma solidity ^0.4.9;\npragma experimental ABIEncoderV2;\ncontract Users{\n    struct user{\n        address useraddress;\n        string name;\n        uint state;\n    }\n    struct game{\n        address j1;\n        address j2;\n        string contractadd;\n    }\n\n    user[] users;\n    game[] games;\n    event newgame(string eventtype,string contadd,address j1,address j2);\n    event newuser(string eventtype,string name,address useradd);\n\n    function setgame(address _j1, address _j2, string _contractadd) \n    {\n        games.push(game(_j1,_j2,_contractadd));\n        emit newgame(\"newgame\",_contractadd,_j1,_j2);\n    }\n\n    function getgames(address _j)public returns(string[])\n    {\n         string[] memory gamesadd=new string[](games.length);\n         uint index=0;\n        for(uint i=0;i<games.length;i++)\n        {\n            if(games[i].j1==_j||games[i].j2==_j)\n            {\n                gamesadd[index]=games[i].contractadd;\n                index++;\n            }\n        }\n        return gamesadd;\n    }\n\n    \n    function register(string _na)\n    {\n       users.push(user(msg.sender,_na,0));\n       emit newuser(\"newuser\",_na,msg.sender);\n    }\n\n    function getnum() public returns(uint256)\n    {\n        return users.length;\n    }\n\n    function getaddresses() public returns(address[])\n    {\n        address[] memory userad=new address[](users.length);\n        for(uint i=0;i<users.length;i++)\n            userad[i]= users[i].useraddress;\n        return userad;\n    }\n\n    function getname(address _ad) public returns(string)\n    {\n        for(uint i=0;i<users.length;i++)\n            if(users[i].useraddress==_ad)\n                return users[i].name;\n        return \"\";\n    }\n\n    \n    \n\n    \n}\n",
  "sourcePath": "/Library/WebServer/Documents/game/web3/contracts/Users.sol",
  "compiler": {
    "name": "solc",
    "version": "0.4.22+commit.4cb486ee.Emscripten.clang"
  },
  "schemaVersion": "3.4.0",
  "updatedAt": "2021-05-13T16:25:56.582Z",
  "networkType": "ethereum",
  "devdoc": {
    "methods": {}
  },
  "userdoc": {
    "methods": {}
  }
}