{
  "contractName": "RPS",
  "abi": [
    {
      "constant": true,
      "inputs": [],
      "name": "stake",
      "outputs": [
        {
          "name": "",
          "type": "uint256"
        }
      ],
      "payable": false,
      "stateMutability": "view",
      "type": "function"
    },
    {
      "constant": true,
      "inputs": [],
      "name": "c2",
      "outputs": [
        {
          "name": "",
          "type": "uint8"
        }
      ],
      "payable": false,
      "stateMutability": "view",
      "type": "function"
    },
    {
      "constant": true,
      "inputs": [],
      "name": "c1Hash",
      "outputs": [
        {
          "name": "",
          "type": "bytes32"
        }
      ],
      "payable": false,
      "stateMutability": "view",
      "type": "function"
    },
    {
      "constant": true,
      "inputs": [],
      "name": "j2",
      "outputs": [
        {
          "name": "",
          "type": "address"
        }
      ],
      "payable": false,
      "stateMutability": "view",
      "type": "function"
    },
    {
      "constant": true,
      "inputs": [],
      "name": "lastAction",
      "outputs": [
        {
          "name": "",
          "type": "uint256"
        }
      ],
      "payable": false,
      "stateMutability": "view",
      "type": "function"
    },
    {
      "constant": true,
      "inputs": [],
      "name": "state",
      "outputs": [
        {
          "name": "",
          "type": "uint256"
        }
      ],
      "payable": false,
      "stateMutability": "view",
      "type": "function"
    },
    {
      "constant": true,
      "inputs": [],
      "name": "j1",
      "outputs": [
        {
          "name": "",
          "type": "address"
        }
      ],
      "payable": false,
      "stateMutability": "view",
      "type": "function"
    },
    {
      "constant": true,
      "inputs": [],
      "name": "winner",
      "outputs": [
        {
          "name": "",
          "type": "uint256"
        }
      ],
      "payable": false,
      "stateMutability": "view",
      "type": "function"
    },
    {
      "constant": true,
      "inputs": [],
      "name": "TIMEOUT",
      "outputs": [
        {
          "name": "",
          "type": "uint256"
        }
      ],
      "payable": false,
      "stateMutability": "view",
      "type": "function"
    },
    {
      "inputs": [
        {
          "name": "_c1Hash",
          "type": "bytes32"
        },
        {
          "name": "_j2",
          "type": "address"
        }
      ],
      "payable": true,
      "stateMutability": "payable",
      "type": "constructor"
    },
    {
      "anonymous": false,
      "inputs": [
        {
          "indexed": false,
          "name": "eventtype",
          "type": "string"
        },
        {
          "indexed": false,
          "name": "state",
          "type": "uint256"
        }
      ],
      "name": "newstate",
      "type": "event"
    },
    {
      "constant": false,
      "inputs": [],
      "name": "getstate",
      "outputs": [
        {
          "name": "",
          "type": "uint256"
        },
        {
          "name": "",
          "type": "address"
        },
        {
          "name": "",
          "type": "address"
        }
      ],
      "payable": false,
      "stateMutability": "nonpayable",
      "type": "function"
    },
    {
      "constant": false,
      "inputs": [
        {
          "name": "_c2",
          "type": "uint8"
        }
      ],
      "name": "play",
      "outputs": [],
      "payable": true,
      "stateMutability": "payable",
      "type": "function"
    },
    {
      "constant": false,
      "inputs": [
        {
          "name": "_c1",
          "type": "uint8"
        },
        {
          "name": "_salt",
          "type": "uint256"
        }
      ],
      "name": "solve",
      "outputs": [],
      "payable": false,
      "stateMutability": "nonpayable",
      "type": "function"
    },
    {
      "constant": false,
      "inputs": [],
      "name": "j1Timeout",
      "outputs": [],
      "payable": false,
      "stateMutability": "nonpayable",
      "type": "function"
    },
    {
      "constant": false,
      "inputs": [],
      "name": "j2Timeout",
      "outputs": [],
      "payable": false,
      "stateMutability": "nonpayable",
      "type": "function"
    },
    {
      "constant": true,
      "inputs": [
        {
          "name": "_c1",
          "type": "uint8"
        },
        {
          "name": "_c2",
          "type": "uint8"
        }
      ],
      "name": "win",
      "outputs": [
        {
          "name": "w",
          "type": "bool"
        }
      ],
      "payable": false,
      "stateMutability": "view",
      "type": "function"
    }
  ],
  "bytecode": "0x608060405261012c600555604051604080610de7833981018060405281019080805190602001909291908051906020019092919050505034600481905550336000806101000a81548173ffffffffffffffffffffffffffffffffffffffff021916908373ffffffffffffffffffffffffffffffffffffffff16021790555080600160006101000a81548173ffffffffffffffffffffffffffffffffffffffff021916908373ffffffffffffffffffffffffffffffffffffffff16021790555081600281600019169055504260068190555060016007819055505050610cfe806100e96000396000f3006080604052600436106100db576000357c0100000000000000000000000000000000000000000000000000000000900463ffffffff1680630c4395b9146100e0578063294914a414610135578063296d9ac21461014c5780633a4b66f1146101dd57806348e257cb146102085780634d03e3d21461024157806353a04b051461027457806380985af91461029757806389f71d53146102ee578063a5ddec7c14610319578063c19d93fb14610353578063c37597c61461037e578063c8391142146103d5578063dfbf53ae146103ec578063f56f48f214610417575b600080fd5b3480156100ec57600080fd5b5061011b600480360381019080803560ff169060200190929190803560ff169060200190929190505050610442565b604051808215151515815260200191505060405180910390f35b34801561014157600080fd5b5061014a61050b565b005b34801561015857600080fd5b50610161610638565b604051808481526020018373ffffffffffffffffffffffffffffffffffffffff1673ffffffffffffffffffffffffffffffffffffffff1681526020018273ffffffffffffffffffffffffffffffffffffffff1673ffffffffffffffffffffffffffffffffffffffff168152602001935050505060405180910390f35b3480156101e957600080fd5b506101f2610690565b6040518082815260200191505060405180910390f35b34801561021457600080fd5b5061021d610696565b6040518082600581111561022d57fe5b60ff16815260200191505060405180910390f35b34801561024d57600080fd5b506102566106a9565b60405180826000191660001916815260200191505060405180910390f35b610295600480360381019080803560ff1690602001909291905050506106af565b005b3480156102a357600080fd5b506102ac6107f6565b604051808273ffffffffffffffffffffffffffffffffffffffff1673ffffffffffffffffffffffffffffffffffffffff16815260200191505060405180910390f35b3480156102fa57600080fd5b5061030361081c565b6040518082815260200191505060405180910390f35b34801561032557600080fd5b50610351600480360381019080803560ff16906020019092919080359060200190929190505050610822565b005b34801561035f57600080fd5b50610368610b69565b6040518082815260200191505060405180910390f35b34801561038a57600080fd5b50610393610b6f565b604051808273ffffffffffffffffffffffffffffffffffffffff1673ffffffffffffffffffffffffffffffffffffffff16815260200191505060405180910390f35b3480156103e157600080fd5b506103ea610b94565b005b3480156103f857600080fd5b50610401610cc6565b6040518082815260200191505060405180910390f35b34801561042357600080fd5b5061042c610ccc565b6040518082815260200191505060405180910390f35b600081600581111561045057fe5b83600581111561045c57fe5b141561046b5760009050610505565b6000600581111561047857fe5b83600581111561048457fe5b14156104935760009050610505565b60028260058111156104a157fe5b8115156104aa57fe5b0660028460058111156104b957fe5b8115156104c257fe5b0614156104e9578160058111156104d557fe5b8360058111156104e157fe5b109050610505565b8160058111156104f557fe5b83600581111561050157fe5b1190505b92915050565b6000600581111561051857fe5b600360009054906101000a900460ff16600581111561053357fe5b14151561053f57600080fd5b600554600654014211151561055357600080fd5b6000809054906101000a900473ffffffffffffffffffffffffffffffffffffffff1673ffffffffffffffffffffffffffffffffffffffff166108fc6004549081150290604051600060405180830381858888f19350505050506000600481905550600360078190555060036008819055507f3d6ddc010a747856c025f43f89431d24f75e4eb240c034f008bddf65758220c56007546040518080602001838152602001828103825260088152602001807f6e657773746174650000000000000000000000000000000000000000000000008152506020019250505060405180910390a1565b60008060006007546000809054906101000a900473ffffffffffffffffffffffffffffffffffffffff16600160009054906101000a900473ffffffffffffffffffffffffffffffffffffffff16925092509250909192565b60045481565b600360009054906101000a900460ff1681565b60025481565b600060058111156106bc57fe5b600360009054906101000a900460ff1660058111156106d757fe5b1415156106e357600080fd5b600454341415156106f357600080fd5b600160009054906101000a900473ffffffffffffffffffffffffffffffffffffffff1673ffffffffffffffffffffffffffffffffffffffff163373ffffffffffffffffffffffffffffffffffffffff1614151561074f57600080fd5b600260078190555080600360006101000a81548160ff0219169083600581111561077557fe5b0217905550426006819055507f3d6ddc010a747856c025f43f89431d24f75e4eb240c034f008bddf65758220c56007546040518080602001838152602001828103825260088152602001807f6e657773746174650000000000000000000000000000000000000000000000008152506020019250505060405180910390a150565b600160009054906101000a900473ffffffffffffffffffffffffffffffffffffffff1681565b60065481565b6000600581111561082f57fe5b600360009054906101000a900460ff16600581111561084a57fe5b1415151561085757600080fd5b6000809054906101000a900473ffffffffffffffffffffffffffffffffffffffff1673ffffffffffffffffffffffffffffffffffffffff163373ffffffffffffffffffffffffffffffffffffffff161415156108b257600080fd5b600254600019168282604051808360058111156108cb57fe5b60ff167f01000000000000000000000000000000000000000000000000000000000000000281526001018281526020019250505060405180910390206000191614151561091757600080fd5b61093082600360009054906101000a900460ff16610442565b1561099e576000809054906101000a900473ffffffffffffffffffffffffffffffffffffffff1673ffffffffffffffffffffffffffffffffffffffff166108fc6004546002029081150290604051600060405180830381858888f19350505050506001600881905550610ae3565b6109b7600360009054906101000a900460ff1683610442565b15610a2657600160009054906101000a900473ffffffffffffffffffffffffffffffffffffffff1673ffffffffffffffffffffffffffffffffffffffff166108fc6004546002029081150290604051600060405180830381858888f19350505050506002600881905550610ae2565b6000809054906101000a900473ffffffffffffffffffffffffffffffffffffffff1673ffffffffffffffffffffffffffffffffffffffff166108fc6004549081150290604051600060405180830381858888f1935050505050600160009054906101000a900473ffffffffffffffffffffffffffffffffffffffff1673ffffffffffffffffffffffffffffffffffffffff166108fc6004549081150290604051600060405180830381858888f193505050505060036008819055505b5b600060048190555060036007819055507f3d6ddc010a747856c025f43f89431d24f75e4eb240c034f008bddf65758220c56007546040518080602001838152602001828103825260088152602001807f6e657773746174650000000000000000000000000000000000000000000000008152506020019250505060405180910390a15050565b60075481565b6000809054906101000a900473ffffffffffffffffffffffffffffffffffffffff1681565b60006005811115610ba157fe5b600360009054906101000a900460ff166005811115610bbc57fe5b14151515610bc957600080fd5b6005546006540142111515610bdd57600080fd5b600160009054906101000a900473ffffffffffffffffffffffffffffffffffffffff1673ffffffffffffffffffffffffffffffffffffffff166108fc6004546002029081150290604051600060405180830381858888f19350505050506000600481905550600360078190555060026008819055507f3d6ddc010a747856c025f43f89431d24f75e4eb240c034f008bddf65758220c56007546040518080602001838152602001828103825260088152602001807f6e657773746174650000000000000000000000000000000000000000000000008152506020019250505060405180910390a1565b60085481565b600554815600a165627a7a72305820016191342f5db8fb76f982a8c6d2addec6b0b203efa3f36084dea15984e14ccd0029",
  "source": "/**\n *  @title Rock Paper Scissors Lizard Spock\n *  @author Clément Lesaege - <clement@lesaege.com>\n */\n \n/* This program is free software. It comes without any warranty, to\nthe extent permitted by applicable law. You can redistribute it\nand/or modify it under the terms of the Do What The Fuck You Want\nTo Public License, Version 2, as published by Sam Hocevar. See\nhttp://www.wtfpl.net/ for more details. */\n\npragma solidity ^0.4.9;\n\ncontract RPS{\n    address public j1; // The first player creating the contract.\n    address public j2; // The second player.\n    enum Move {Null, Rock, Paper, Scissors, Spock, Lizard} // Possible moves. Note that if the parity of the moves is the same the lower one wins, otherwise the higher one. \n    bytes32 public c1Hash; // Commitment of j1.\n    Move public c2; // Move of j2. Move.Null before he played.\n    uint256 public stake; // Amout bet by each party.\n    uint256 public TIMEOUT = 5 minutes; // If some party takes more than TIMEOUT to respond, the other can call TIMEOUT to win.\n    uint256 public lastAction; // The time of the last action. Usefull to determine if someone has timed out.\n    uint256 public state;\n    /** @dev Constructor. Must send the amount at stake when creating the contract. Note that the move and salt must be saved.\n     *  @param _c1Hash Must be equal to keccak256(c1,salt) where c1 is the move of the j1.\n     */\n     uint256 public winner;\n     \n\n    function RPS(bytes32 _c1Hash, address _j2) payable {\n        stake = msg.value; // La mise correspond à la quantité d'ethers envoyés.\n        j1=msg.sender;\n        j2=_j2;\n        c1Hash=_c1Hash;\n        lastAction=now;\n        state=1;\n    }\n\nfunction getstate() returns(uint256,address,address)\n{\n    return (state,j1,j2);\n}\n\nevent newstate(string eventtype,uint256 state);\n    \n    \n    /** @dev To be called by j2 and provided stake.\n     *  @param _c2 The move submitted by j2.\n     */\n    function play(Move _c2) payable {\n        require(c2==Move.Null); // J2 has not played yet.\n        require(msg.value==stake); // J2 has paid the stake.\n        require(msg.sender==j2); // Only j2 can call this function.\n          state=2;  \n        c2=_c2;\n        lastAction=now;\n        emit newstate(\"newstate\",state);\n    }\n    \n    /** @dev To be called by j1. Reveal the move and send the ETH to the winning party or split them.\n     *  @param _c1 The move played by j1.\n     *  @param _salt The salt used when submitting the commitment when the constructor was called.\n     */\n    function solve(Move _c1, uint256 _salt) {\n        require(c2!=Move.Null); // J2 must have played.\n        require(msg.sender==j1); // J1 can call this.\n        require(keccak256(_c1,_salt)==c1Hash); // Verify the value is the commited one.\n        \n        // If j1 or j2 throws at fallback it won't get funds and that is his fault.\n        // Despite what the warnings say, we should not use transfer as a throwing fallback would be able to block the contract, in case of tie.\n        if (win(_c1,c2))\n        {\n            j1.send(2*stake);\n            winner=1;\n\n        }\n        else if (win(c2,_c1))\n        {\n            j2.send(2*stake);\n            winner=2;\n        }\n        else {\n            j1.send(stake);\n            j2.send(stake);\n            winner=3;\n        }\n        stake=0;\n        state=3;\n        emit newstate(\"newstate\",state);\n    }\n\n\n    /** @dev Let j2 get the funds back if j1 did not play.\n     */\n    function j1Timeout() {\n        require(c2!=Move.Null); // J2 already played.\n        require(now > lastAction + TIMEOUT); // Timeout time has passed.\n        j2.send(2*stake);\n        stake=0;\n        state=3;\n        winner=2;\n        emit newstate(\"newstate\",state);\n    }\n    \n    /** @dev Let j1 take back the funds if j2 never play.\n     */\n    function j2Timeout() {\n        require(c2==Move.Null); // J2 has not played.\n        require(now > lastAction + TIMEOUT); // Timeout time has passed.\n        j1.send(stake);\n        stake=0;\n        state=3;\n        winner=3;\n        emit newstate(\"newstate\",state);\n    }\n  \n    /** @dev Is this move winning over the other.\n     *  @param _c1 The first move.\n     *  @param _c2 The move the first move is considered again.\n     *  @return w True if c1 beats c2. False if c1 is beaten by c2 or in case of tie.\n     */\n    function win(Move _c1, Move _c2) constant returns (bool w) {\n        if (_c1 == _c2)\n            return false; // They played the same so no winner.\n        else if (_c1==Move.Null)\n            return false; // They did not play.\n        else if (uint(_c1)%2==uint(_c2)%2) \n            return (_c1<_c2);\n        else\n            return (_c1>_c2);\n    }\n    \n}\n\ncontract Hasher{\n    /** @dev Give the commitement. Must only be called locally.\n     *  @param _c The move.\n     *  @param _salt The salt to increase entropy.\n     */\n    function hash(uint8 _c, uint256 _salt) constant returns(bytes32) {\n        return keccak256(_c,_salt);\n    }\n}\n",
  "sourcePath": "/Library/WebServer/Documents/game/web3/contracts/RPS.sol",
  "compiler": {
    "name": "solc",
    "version": "0.4.22+commit.4cb486ee.Emscripten.clang"
  },
  "schemaVersion": "3.4.0",
  "updatedAt": "2021-05-12T15:01:14.536Z",
  "devdoc": {
    "methods": {
      "j1Timeout()": {
        "details": "Let j2 get the funds back if j1 did not play."
      },
      "j2Timeout()": {
        "details": "Let j1 take back the funds if j2 never play."
      },
      "play(uint8)": {
        "details": "To be called by j2 and provided stake.",
        "params": {
          "_c2": "The move submitted by j2."
        }
      },
      "solve(uint8,uint256)": {
        "details": "To be called by j1. Reveal the move and send the ETH to the winning party or split them.",
        "params": {
          "_c1": "The move played by j1.",
          "_salt": "The salt used when submitting the commitment when the constructor was called."
        }
      },
      "win(uint8,uint8)": {
        "details": "Is this move winning over the other.",
        "params": {
          "_c1": "The first move.",
          "_c2": "The move the first move is considered again."
        },
        "return": "w True if c1 beats c2. False if c1 is beaten by c2 or in case of tie."
      }
    }
  },
  "userdoc": {
    "methods": {}
  }
}